:020000040800F2
:10000000380700202902000885050008C9030008F8
:10001000810500081903000813080008000000000B
:10002000000000000000000000000000A90500081A
:100030001D0300080000000087050008C106000835
:10004000430200084302000843020008430200087C
:10005000430200084302000843020008430200086C
:10006000430200084302000843020008430200085C
:10007000430200084302000843020008430200084C
:10008000430200084302000843020008430200083C
:10009000430200084302000843020008430200082C
:1000A000430200084302000843020008430200081C
:1000B000430200084302000843020008430200080C
:1000C00043020008430200084302000843020008FC
:1000D000430200082D0700084302000843020008FD
:1000E00043020008430200084302000843020008DC
:1000F00043020008430200084302000843020008CC
:1001000043020008430200084302000843020008BB
:1001100043020008430200084302000843020008AB
:10012000430200084302000843020008430200089B
:10013000430200084302000843020008430200088B
:10014000430200084302000843020008430200087B
:10015000430200084302000843020008430200086B
:10016000430200084302000843020008430200085B
:10017000430200084302000843020008430200084B
:10018000430200084302000800F002F800F03CF8C7
:100190000AA090E8000C82448344AAF10107DA45E2
:1001A00001D100F031F8AFF2090EBAE80F0013F0F8
:1001B000010F18BFFB1A43F0010318477407000032
:1001C00094070000103A24BF78C878C1FAD85207C3
:1001D00024BF30C830C144BF04680C6070470000C1
:1001E0000023002400250026103A28BF78C1FBD840
:1001F000520728BF30C148BF0B6070471FB500F0E1
:1002000091FB1FBD10B510BD00F033F81146FFF78C
:10021000F5FF00F063FB00F051F803B4FFF7F2FFC5
:1002200003BC00F0F8FA000009488047094800477D
:10023000FEE7FEE7FEE7FEE7FEE7FEE7FEE7FEE796
:10024000FEE7FEE704480549054A064B70470000F3
:10025000C506000889010008380100203807002081
:1002600038030020380300207047704770477047FC
:100270007047754600F02CF8AE46050069465346B7
:1002800020F00700854618B020B5FFF7DBFFBDE87A
:1002900020404FF000064FF000074FF000084FF0ED
:1002A000000B21F00701AC46ACE8C009ACE8C0097E
:1002B000ACE8C009ACE8C0098D46704710B50446EB
:1002C000AFF300802046BDE81040FFF7A6BF000056
:1002D00000487047D80000201CB50121202000F004
:1002E00053F94FF48070009001208DF80400002035
:1002F0008DF8060003208DF8050002208DF8070018
:100300006946044800F00BF84FF48071014800F092
:1003100057F81CBD0014024000BFFEE77047F0B55F
:100320000A4600210023002400BF3DE0012505FA14
:1003300001F3156805EA03049C4234D105684F00B7
:100340000326BE40B543056015794E00B5400668EA
:10035000354305601579012D02D01579022D16D18E
:1003600085684F000326BE40B543856055794E0031
:10037000B540866835438560456801268E40B543A3
:100380004560456896798E40B6B235434560C5688C
:100390004F000326BE40B543C560D5794E00B54039
:1003A000C6683543C560491C1029BFD3F0BD02465D
:1003B000002013690B400BB1012000E000207047C2
:1003C000418370470183704700BFFEE74CF6CC4085
:1003D00001490860704700000030004070B50546D4
:1003E0000C4645F2555000F01FF8284600F010F872
:1003F000204600F013F800F003F8FFF7E7FF70BDA8
:100400004AF6AA2001490860704700000030004009
:100410000149486070470000003000400149886091
:10042000704700000030004001490860704700003C
:10043000003000401CB50121112000F0A5F81C205F
:10044000009000208DF8040003208DF805000120A5
:100450008DF8070069460648FFF761FF012000900C
:1004600002208DF8070069460248FFF758FF1CBDBF
:10047000001002400000024010B5044614B10120F3
:100480002C4908702B480078002837D010212A48C2
:10049000FFF78DFF78B108212748FFF788FF50B19B
:1004A00004212548FFF783FF28B101212348FFF7E6
:1004B0007EFF012822D10A2000F0CEF900201D493C
:1004C000087010211C48FFF772FF08B9012010BD09
:1004D00008211948FFF76BFF08B90220F7E704214C
:1004E0001548FFF764FF08B90320F0E7012113481E
:1004F000FFF75DFF01281BD10420E8E710210E481B
:10050000FFF755FF012813D108210B48FFF74FFFD4
:1005100001280DD104210848FFF749FF012807D120
:1005200001210648FFF743FF10B901200149087077
:100530000020CCE700000020001002400000024034
:100540001CB50121202000F01FF84FF4C06000907E
:1005500001208DF8040000208DF8060003208DF89E
:10056000050001208DF8070069460448FFF7D7FE13
:100570004FF4C0610148FFF725FF1CBD0014024085
:1005800000BFFEE77047704729B1064A1268024370
:10059000044B1A6004E0034A12688243014B1A605C
:1005A0007047000030380240704700000CB5002052
:1005B000019000903448006840F48030324908606F
:1005C00000BF3148006800F4003000900198401CE2
:1005D0000190009818B90198B0F5A04FF1D12A48C0
:1005E000006800F4003010B10120009001E000200C
:1005F00000900098012846D123484030006840F020
:1006000080502149403108602048006840F4404053
:100610001E4908601C48083000681B490831086002
:100620000846006840F4004008600846006840F44E
:10063000A05008601648091F0860081F006840F0B5
:100640008070091F086000BF0F48006800F000704C
:100650000028F9D040F205700E4908600A480830B9
:10066000006820F003000849083108600846006867
:1006700040F00200086000BF03480830006800F046
:100680000C000828F8D10CBD003802400070004072
:1006900008544007003C0240042808D14FF0E021F4
:1006A000096941F004014FF0E022116107E04FF0C9
:1006B000E021096921F004014FF0E0221161704747
:1006C0007047000010B51548006840F470001349E9
:1006D00008601348006840F00100114908600020DC
:1006E0000F49083108600E4800680E4908400C495F
:1006F00008600D48091D0860081F006820F480206C
:10070000091F0860002006490C310860FFF74EFF02
:100710004FF0006001498039086010BD88ED00E0AD
:1007200000380240FFFFF6FE1030002410B540F202
:1007300025511D4800F03EF810B31B4800F064F846
:10074000C4B21A48008800F40040C8B917480088AD
:1007500000F4804060B10A2C03D0002013490880C7
:1007600020E01248008840F400401049088019E059
:100770000D2C06D10D48008840F480400B490880BC
:1007800010E00A480088C0F30D0009490C540748DE
:100790000088401C0549088008460088C72801DDFC
:1007A0000020088010BD0000001001400C00002057
:1007B0001000002070B50246002400230025002010
:1007C00040F66A16B14200D100BFC1F3421501F0F4
:1007D0001F03012606FA03F3012D02D19689334047
:1007E00006E0022D02D1168A334001E0968A33409A
:1007F0000C12012606FA04F41688344013B10CB129
:10080000012000E0002070BD01468888C0F3080088
:10081000704700BFFEE700BF7047000010B50446F8
:100820006FF00400FFF738FFE11704EB5171C1F3DB
:10083000C701074A11701046007800EB4001C1EB78
:10084000C0104FF6FF7101EAC0000249088010BDD8
:10085000020000200400002070B504464FF4077029
:1008600094FBF0F0C6B24FF4077094FBF0F100FB7C
:10087000114085B205E04FF4077000F009F8701ED2
:10088000C6B2002EF7D115B1284600F001F870BDB0
:100890000146114A12884A434FF0E0235A61002270
:1008A0009A611A46126942F001021A6100BF4FF0C4
:1008B000E022106900F001021AB100F48032002A2F
:1008C000F5D04FF0E022126922F001024FF0E02350
:1008D0001A6100229A61704704000020A820FFF7E7
:1008E0009DFFFFF72DFEFFF7F7FCFFF7A3FD4FF489
:1008F000FA70FFF7B1FF0020094908604FF4FA7160
:100900000420FFF76BFD09E00020FFF7B5FD042888
:1009100001D1FFF775FD0A20FFF79EFFF4E7000005
:10092000A48242424FF04070E1EE100A704700008E
:10093000500900080000002010000000C401000859
:10094000600900081000002028070000E0010008EE
:100950000100000000000000000000000000000096
:040000050800018965
:00000001FF
